{
  "contractName": "Transaction",
  "abi": [
    {
      "anonymous": false,
      "inputs": [
        {
          "indexed": false,
          "internalType": "address",
          "name": "from",
          "type": "address"
        },
        {
          "indexed": false,
          "internalType": "address",
          "name": "receiver",
          "type": "address"
        },
        {
          "indexed": false,
          "internalType": "string",
          "name": "user_id",
          "type": "string"
        },
        {
          "indexed": false,
          "internalType": "string",
          "name": "election_id",
          "type": "string"
        },
        {
          "indexed": false,
          "internalType": "string",
          "name": "candidate_id",
          "type": "string"
        },
        {
          "indexed": false,
          "internalType": "uint256",
          "name": "timestamp",
          "type": "uint256"
        }
      ],
      "name": "Transfer",
      "type": "event"
    },
    {
      "inputs": [
        {
          "internalType": "address payable",
          "name": "receiver",
          "type": "address"
        },
        {
          "internalType": "string",
          "name": "user_id",
          "type": "string"
        },
        {
          "internalType": "string",
          "name": "election_id",
          "type": "string"
        },
        {
          "internalType": "string",
          "name": "candidate_id",
          "type": "string"
        }
      ],
      "name": "addToBlockchain",
      "outputs": [],
      "stateMutability": "nonpayable",
      "type": "function"
    },
    {
      "inputs": [],
      "name": "getAllTransaction",
      "outputs": [
        {
          "components": [
            {
              "internalType": "address",
              "name": "from",
              "type": "address"
            },
            {
              "internalType": "address",
              "name": "receiver",
              "type": "address"
            },
            {
              "internalType": "string",
              "name": "user_id",
              "type": "string"
            },
            {
              "internalType": "string",
              "name": "election_id",
              "type": "string"
            },
            {
              "internalType": "string",
              "name": "candidate_id",
              "type": "string"
            },
            {
              "internalType": "uint256",
              "name": "timestamp",
              "type": "uint256"
            }
          ],
          "internalType": "struct Transaction.TransactionStruct[]",
          "name": "",
          "type": "tuple[]"
        }
      ],
      "stateMutability": "view",
      "type": "function",
      "constant": true
    },
    {
      "inputs": [],
      "name": "getTransactionCount",
      "outputs": [
        {
          "internalType": "uint256",
          "name": "",
          "type": "uint256"
        }
      ],
      "stateMutability": "view",
      "type": "function",
      "constant": true
    }
  ],
  "bytecode": "0x608060405234801561001057600080fd5b50610ca2806100206000396000f3fe608060405234801561001057600080fd5b50600436106100415760003560e01c806325ecc6e0146100465780632e7700f014610062578063add6415d14610080575b600080fd5b610060600480360381019061005b9190610667565b61009e565b005b61006a610273565b6040516100779190610987565b60405180910390f35b61008861027c565b6040516100959190610965565b60405180910390f35b60016000808282546100b09190610a69565b9250508190555060016040518060c001604052803373ffffffffffffffffffffffffffffffffffffffff1681526020018673ffffffffffffffffffffffffffffffffffffffff16815260200185815260200184815260200183815260200142815250908060018154018082558091505060019003906000526020600020906006020160009091909190915060008201518160000160006101000a81548173ffffffffffffffffffffffffffffffffffffffff021916908373ffffffffffffffffffffffffffffffffffffffff16021790555060208201518160010160006101000a81548173ffffffffffffffffffffffffffffffffffffffff021916908373ffffffffffffffffffffffffffffffffffffffff16021790555060408201518160020190805190602001906101e5929190610547565b506060820151816003019080519060200190610202929190610547565b50608082015181600401908051906020019061021f929190610547565b5060a0820151816005015550507fc2a008061ffd24e1e90903faea6d67542ba54406f86b22a777a70e5627413907338585858542604051610265969594939291906108ef565b60405180910390a150505050565b60008054905090565b60606001805480602002602001604051908101604052809291908181526020016000905b8282101561053e57838290600052602060002090600602016040518060c00160405290816000820160009054906101000a900473ffffffffffffffffffffffffffffffffffffffff1673ffffffffffffffffffffffffffffffffffffffff1673ffffffffffffffffffffffffffffffffffffffff1681526020016001820160009054906101000a900473ffffffffffffffffffffffffffffffffffffffff1673ffffffffffffffffffffffffffffffffffffffff1673ffffffffffffffffffffffffffffffffffffffff16815260200160028201805461037f90610b85565b80601f01602080910402602001604051908101604052809291908181526020018280546103ab90610b85565b80156103f85780601f106103cd576101008083540402835291602001916103f8565b820191906000526020600020905b8154815290600101906020018083116103db57829003601f168201915b5050505050815260200160038201805461041190610b85565b80601f016020809104026020016040519081016040528092919081815260200182805461043d90610b85565b801561048a5780601f1061045f5761010080835404028352916020019161048a565b820191906000526020600020905b81548152906001019060200180831161046d57829003601f168201915b505050505081526020016004820180546104a390610b85565b80601f01602080910402602001604051908101604052809291908181526020018280546104cf90610b85565b801561051c5780601f106104f15761010080835404028352916020019161051c565b820191906000526020600020905b8154815290600101906020018083116104ff57829003601f168201915b50505050508152602001600582015481525050815260200190600101906102a0565b50505050905090565b82805461055390610b85565b90600052602060002090601f01602090048101928261057557600085556105bc565b82601f1061058e57805160ff19168380011785556105bc565b828001600101855582156105bc579182015b828111156105bb5782518255916020019190600101906105a0565b5b5090506105c991906105cd565b5090565b5b808211156105e65760008160009055506001016105ce565b5090565b60006105fd6105f8846109d3565b6109a2565b90508281526020810184848401111561061557600080fd5b610620848285610b43565b509392505050565b60008135905061063781610c55565b92915050565b600082601f83011261064e57600080fd5b813561065e8482602086016105ea565b91505092915050565b6000806000806080858703121561067d57600080fd5b600061068b87828801610628565b945050602085013567ffffffffffffffff8111156106a857600080fd5b6106b48782880161063d565b935050604085013567ffffffffffffffff8111156106d157600080fd5b6106dd8782880161063d565b925050606085013567ffffffffffffffff8111156106fa57600080fd5b6107068782880161063d565b91505092959194509250565b600061071e838361083a565b905092915050565b61072f81610b0d565b82525050565b61073e81610abf565b82525050565b61074d81610abf565b82525050565b600061075e82610a13565b6107688185610a36565b93508360208202850161077a85610a03565b8060005b858110156107b657848403895281516107978582610712565b94506107a283610a29565b925060208a0199505060018101905061077e565b50829750879550505050505092915050565b60006107d382610a1e565b6107dd8185610a47565b93506107ed818560208601610b52565b6107f681610c44565b840191505092915050565b600061080c82610a1e565b6108168185610a58565b9350610826818560208601610b52565b61082f81610c44565b840191505092915050565b600060c0830160008301516108526000860182610735565b5060208301516108656020860182610735565b506040830151848203604086015261087d82826107c8565b9150506060830151848203606086015261089782826107c8565b915050608083015184820360808601526108b182826107c8565b91505060a08301516108c660a08601826108d1565b508091505092915050565b6108da81610b03565b82525050565b6108e981610b03565b82525050565b600060c0820190506109046000830189610744565b6109116020830188610726565b81810360408301526109238187610801565b905081810360608301526109378186610801565b9050818103608083015261094b8185610801565b905061095a60a08301846108e0565b979650505050505050565b6000602082019050818103600083015261097f8184610753565b905092915050565b600060208201905061099c60008301846108e0565b92915050565b6000604051905081810181811067ffffffffffffffff821117156109c9576109c8610c15565b5b8060405250919050565b600067ffffffffffffffff8211156109ee576109ed610c15565b5b601f19601f8301169050602081019050919050565b6000819050602082019050919050565b600081519050919050565b600081519050919050565b6000602082019050919050565b600082825260208201905092915050565b600082825260208201905092915050565b600082825260208201905092915050565b6000610a7482610b03565b9150610a7f83610b03565b9250827fffffffffffffffffffffffffffffffffffffffffffffffffffffffffffffffff03821115610ab457610ab3610bb7565b5b828201905092915050565b6000610aca82610ae3565b9050919050565b6000610adc82610ae3565b9050919050565b600073ffffffffffffffffffffffffffffffffffffffff82169050919050565b6000819050919050565b6000610b1882610b1f565b9050919050565b6000610b2a82610b31565b9050919050565b6000610b3c82610ae3565b9050919050565b82818337600083830152505050565b60005b83811015610b70578082015181840152602081019050610b55565b83811115610b7f576000848401525b50505050565b60006002820490506001821680610b9d57607f821691505b60208210811415610bb157610bb0610be6565b5b50919050565b7f4e487b7100000000000000000000000000000000000000000000000000000000600052601160045260246000fd5b7f4e487b7100000000000000000000000000000000000000000000000000000000600052602260045260246000fd5b7f4e487b7100000000000000000000000000000000000000000000000000000000600052604160045260246000fd5b6000601f19601f8301169050919050565b610c5e81610ad1565b8114610c6957600080fd5b5056fea2646970667358221220a5080b0aedfa329421d35716584040edb4b8fb19872344d7db8eb548aae316ac64736f6c63430008000033",
  "immutableReferences": {},
  "source": "// SPDX-License-Identifier: UNLICENSED\r\npragma solidity ^0.8.0;\r\n\r\ncontract Transaction{\r\n    uint256 transactionCounter;\r\n\r\n    event Transfer(address from,address receiver,string user_id,string election_id,string candidate_id,uint timestamp);\r\n\r\n    struct TransactionStruct {\r\n        address from;\r\n        address receiver;\r\n        string user_id;\r\n        string election_id;\r\n        string candidate_id;\r\n        uint timestamp;\r\n    }\r\n\r\n    TransactionStruct[] transactions;\r\n\r\n    function addToBlockchain(address payable receiver,string memory user_id,string memory election_id,string memory candidate_id) public {\r\n        transactionCounter+=1;\r\n        transactions.push(TransactionStruct(msg.sender,receiver,user_id,election_id,candidate_id,block.timestamp));\r\n\r\n        emit Transfer(msg.sender,receiver,user_id,election_id,candidate_id,block.timestamp);\r\n    }\r\n\r\n    function getAllTransaction() public view returns (TransactionStruct[] memory){\r\n        return transactions;\r\n    }\r\n\r\n    function getTransactionCount() public view returns (uint256){\r\n        return transactionCounter;\r\n    }\r\n\r\n}",
  "sourcePath": "D:\\study\\sem-7\\03) 4IT31\\Lab\\admin-project\\smart_contract\\contracts\\Transaction.sol",
  "compiler": {
    "name": "solc",
    "version": "0.8.0+commit.c7dfd78e.Emscripten.clang"
  },
  "schemaVersion": "3.4.9",
  "updatedAt": "2023-03-28T18:51:58.917Z",
  "networkType": "ethereum",
  "devdoc": {
    "kind": "dev",
    "methods": {},
    "version": 1
  },
  "userdoc": {
    "kind": "user",
    "methods": {},
    "version": 1
  }
}