{
  "contractName": "Transaction",
  "abi": [
    {
      "anonymous": false,
      "inputs": [
        {
          "indexed": false,
          "internalType": "address",
          "name": "from",
          "type": "address"
        },
        {
          "indexed": false,
          "internalType": "address",
          "name": "receiver",
          "type": "address"
        },
        {
          "indexed": false,
          "internalType": "string",
          "name": "election_id",
          "type": "string"
        },
        {
          "indexed": false,
          "internalType": "string",
          "name": "candidate_id",
          "type": "string"
        },
        {
          "indexed": false,
          "internalType": "uint256",
          "name": "timestamp",
          "type": "uint256"
        }
      ],
      "name": "Transfer",
      "type": "event"
    },
    {
      "inputs": [
        {
          "internalType": "address payable",
          "name": "receiver",
          "type": "address"
        },
        {
          "internalType": "string",
          "name": "election_id",
          "type": "string"
        },
        {
          "internalType": "string",
          "name": "candidate_id",
          "type": "string"
        }
      ],
      "name": "addToBlockchain",
      "outputs": [],
      "stateMutability": "nonpayable",
      "type": "function"
    },
    {
      "inputs": [],
      "name": "getAllTransaction",
      "outputs": [
        {
          "components": [
            {
              "internalType": "address",
              "name": "from",
              "type": "address"
            },
            {
              "internalType": "address",
              "name": "receiver",
              "type": "address"
            },
            {
              "internalType": "string",
              "name": "election_id",
              "type": "string"
            },
            {
              "internalType": "string",
              "name": "candidate_id",
              "type": "string"
            },
            {
              "internalType": "uint256",
              "name": "timestamp",
              "type": "uint256"
            }
          ],
          "internalType": "struct Transaction.TransactionStruct[]",
          "name": "",
          "type": "tuple[]"
        }
      ],
      "stateMutability": "view",
      "type": "function",
      "constant": true
    },
    {
      "inputs": [],
      "name": "getTransactionCount",
      "outputs": [
        {
          "internalType": "uint256",
          "name": "",
          "type": "uint256"
        }
      ],
      "stateMutability": "view",
      "type": "function",
      "constant": true
    }
  ],
  "bytecode": "0x608060405234801561001057600080fd5b50610b8f806100206000396000f3fe608060405234801561001057600080fd5b50600436106100415760003560e01c80632e7700f01461004657806396a4550c14610064578063add6415d14610080575b600080fd5b61004e61009e565b60405161005b9190610874565b60405180910390f35b61007e600480360381019061007991906105af565b6100a7565b005b610088610256565b6040516100959190610852565b60405180910390f35b60008054905090565b60016000808282546100b99190610956565b9250508190555060016040518060a001604052803373ffffffffffffffffffffffffffffffffffffffff1681526020018573ffffffffffffffffffffffffffffffffffffffff16815260200184815260200183815260200142815250908060018154018082558091505060019003906000526020600020906005020160009091909190915060008201518160000160006101000a81548173ffffffffffffffffffffffffffffffffffffffff021916908373ffffffffffffffffffffffffffffffffffffffff16021790555060208201518160010160006101000a81548173ffffffffffffffffffffffffffffffffffffffff021916908373ffffffffffffffffffffffffffffffffffffffff16021790555060408201518160020190805190602001906101e892919061048f565b50606082015181600301908051906020019061020592919061048f565b506080820151816004015550507facf18200ea6569fd27a3df7a25f59ef831d11adc51d2c8942449fa0858aa797733848484426040516102499594939291906107f1565b60405180910390a1505050565b60606001805480602002602001604051908101604052809291908181526020016000905b8282101561048657838290600052602060002090600502016040518060a00160405290816000820160009054906101000a900473ffffffffffffffffffffffffffffffffffffffff1673ffffffffffffffffffffffffffffffffffffffff1673ffffffffffffffffffffffffffffffffffffffff1681526020016001820160009054906101000a900473ffffffffffffffffffffffffffffffffffffffff1673ffffffffffffffffffffffffffffffffffffffff1673ffffffffffffffffffffffffffffffffffffffff16815260200160028201805461035990610a72565b80601f016020809104026020016040519081016040528092919081815260200182805461038590610a72565b80156103d25780601f106103a7576101008083540402835291602001916103d2565b820191906000526020600020905b8154815290600101906020018083116103b557829003601f168201915b505050505081526020016003820180546103eb90610a72565b80601f016020809104026020016040519081016040528092919081815260200182805461041790610a72565b80156104645780601f1061043957610100808354040283529160200191610464565b820191906000526020600020905b81548152906001019060200180831161044757829003601f168201915b505050505081526020016004820154815250508152602001906001019061027a565b50505050905090565b82805461049b90610a72565b90600052602060002090601f0160209004810192826104bd5760008555610504565b82601f106104d657805160ff1916838001178555610504565b82800160010185558215610504579182015b828111156105035782518255916020019190600101906104e8565b5b5090506105119190610515565b5090565b5b8082111561052e576000816000905550600101610516565b5090565b6000610545610540846108c0565b61088f565b90508281526020810184848401111561055d57600080fd5b610568848285610a30565b509392505050565b60008135905061057f81610b42565b92915050565b600082601f83011261059657600080fd5b81356105a6848260208601610532565b91505092915050565b6000806000606084860312156105c457600080fd5b60006105d286828701610570565b935050602084013567ffffffffffffffff8111156105ef57600080fd5b6105fb86828701610585565b925050604084013567ffffffffffffffff81111561061857600080fd5b61062486828701610585565b9150509250925092565b600061063a8383610756565b905092915050565b61064b816109fa565b82525050565b61065a816109ac565b82525050565b610669816109ac565b82525050565b600061067a82610900565b6106848185610923565b935083602082028501610696856108f0565b8060005b858110156106d257848403895281516106b3858261062e565b94506106be83610916565b925060208a0199505060018101905061069a565b50829750879550505050505092915050565b60006106ef8261090b565b6106f98185610934565b9350610709818560208601610a3f565b61071281610b31565b840191505092915050565b60006107288261090b565b6107328185610945565b9350610742818560208601610a3f565b61074b81610b31565b840191505092915050565b600060a08301600083015161076e6000860182610651565b5060208301516107816020860182610651565b506040830151848203604086015261079982826106e4565b915050606083015184820360608601526107b382826106e4565b91505060808301516107c860808601826107d3565b508091505092915050565b6107dc816109f0565b82525050565b6107eb816109f0565b82525050565b600060a0820190506108066000830188610660565b6108136020830187610642565b8181036040830152610825818661071d565b90508181036060830152610839818561071d565b905061084860808301846107e2565b9695505050505050565b6000602082019050818103600083015261086c818461066f565b905092915050565b600060208201905061088960008301846107e2565b92915050565b6000604051905081810181811067ffffffffffffffff821117156108b6576108b5610b02565b5b8060405250919050565b600067ffffffffffffffff8211156108db576108da610b02565b5b601f19601f8301169050602081019050919050565b6000819050602082019050919050565b600081519050919050565b600081519050919050565b6000602082019050919050565b600082825260208201905092915050565b600082825260208201905092915050565b600082825260208201905092915050565b6000610961826109f0565b915061096c836109f0565b9250827fffffffffffffffffffffffffffffffffffffffffffffffffffffffffffffffff038211156109a1576109a0610aa4565b5b828201905092915050565b60006109b7826109d0565b9050919050565b60006109c9826109d0565b9050919050565b600073ffffffffffffffffffffffffffffffffffffffff82169050919050565b6000819050919050565b6000610a0582610a0c565b9050919050565b6000610a1782610a1e565b9050919050565b6000610a29826109d0565b9050919050565b82818337600083830152505050565b60005b83811015610a5d578082015181840152602081019050610a42565b83811115610a6c576000848401525b50505050565b60006002820490506001821680610a8a57607f821691505b60208210811415610a9e57610a9d610ad3565b5b50919050565b7f4e487b7100000000000000000000000000000000000000000000000000000000600052601160045260246000fd5b7f4e487b7100000000000000000000000000000000000000000000000000000000600052602260045260246000fd5b7f4e487b7100000000000000000000000000000000000000000000000000000000600052604160045260246000fd5b6000601f19601f8301169050919050565b610b4b816109be565b8114610b5657600080fd5b5056fea2646970667358221220700c7a613401009334fe1de1848a0d3a6ca4548620b2765eabad1db0c491a32864736f6c63430008000033",
  "immutableReferences": {},
  "source": "// SPDX-License-Identifier: UNLICENSED\r\npragma solidity ^0.8.0;\r\n\r\ncontract Transaction{\r\n    uint256 transactionCounter;\r\n\r\n    event Transfer(address from,address receiver,string election_id,string candidate_id,uint timestamp);\r\n\r\n    struct TransactionStruct {\r\n        address from;\r\n        address receiver;\r\n        string election_id;\r\n        string candidate_id;\r\n        uint timestamp;\r\n    }\r\n\r\n    TransactionStruct[] transactions;\r\n\r\n    function addToBlockchain(address payable receiver,string memory election_id,string memory candidate_id) public {\r\n        transactionCounter+=1;\r\n        transactions.push(TransactionStruct(msg.sender,receiver,election_id,candidate_id,block.timestamp));\r\n\r\n        emit Transfer(msg.sender,receiver,election_id,candidate_id,block.timestamp);\r\n    }\r\n\r\n    function getAllTransaction() public view returns (TransactionStruct[] memory){\r\n        return transactions;\r\n    }\r\n\r\n    function getTransactionCount() public view returns (uint256){\r\n        return transactionCounter;\r\n    }\r\n\r\n}",
  "sourcePath": "D:\\study\\sem-7\\4IT31\\Lab\\admin-project\\smart_contract\\contracts\\Transaction.sol",
  "compiler": {
    "name": "solc",
    "version": "0.8.0+commit.c7dfd78e.Emscripten.clang"
  },
  "schemaVersion": "3.4.9",
  "updatedAt": "2022-09-12T13:35:19.339Z",
  "networkType": "ethereum",
  "devdoc": {
    "kind": "dev",
    "methods": {},
    "version": 1
  },
  "userdoc": {
    "kind": "user",
    "methods": {},
    "version": 1
  }
}