{
  "contractName": "Transaction",
  "abi": [
    {
      "anonymous": false,
      "inputs": [
        {
          "indexed": false,
          "internalType": "address",
          "name": "from",
          "type": "address"
        },
        {
          "indexed": false,
          "internalType": "address",
          "name": "receiver",
          "type": "address"
        },
        {
          "indexed": false,
          "internalType": "uint256",
          "name": "amount",
          "type": "uint256"
        },
        {
          "indexed": false,
          "internalType": "string",
          "name": "message",
          "type": "string"
        },
        {
          "indexed": false,
          "internalType": "uint256",
          "name": "timestamp",
          "type": "uint256"
        },
        {
          "indexed": false,
          "internalType": "string",
          "name": "keyword",
          "type": "string"
        }
      ],
      "name": "Transfer",
      "type": "event"
    },
    {
      "inputs": [
        {
          "internalType": "address payable",
          "name": "receiver",
          "type": "address"
        },
        {
          "internalType": "uint256",
          "name": "amount",
          "type": "uint256"
        },
        {
          "internalType": "string",
          "name": "message",
          "type": "string"
        },
        {
          "internalType": "string",
          "name": "keyword",
          "type": "string"
        }
      ],
      "name": "addToBlockchain",
      "outputs": [],
      "stateMutability": "nonpayable",
      "type": "function"
    },
    {
      "inputs": [],
      "name": "getAllTransaction",
      "outputs": [
        {
          "components": [
            {
              "internalType": "address",
              "name": "from",
              "type": "address"
            },
            {
              "internalType": "address",
              "name": "receiver",
              "type": "address"
            },
            {
              "internalType": "uint256",
              "name": "amount",
              "type": "uint256"
            },
            {
              "internalType": "string",
              "name": "message",
              "type": "string"
            },
            {
              "internalType": "uint256",
              "name": "timestamp",
              "type": "uint256"
            },
            {
              "internalType": "string",
              "name": "keyword",
              "type": "string"
            }
          ],
          "internalType": "struct Transaction.TransactionStruct[]",
          "name": "",
          "type": "tuple[]"
        }
      ],
      "stateMutability": "view",
      "type": "function",
      "constant": true
    },
    {
      "inputs": [],
      "name": "getTransactionCount",
      "outputs": [
        {
          "internalType": "uint256",
          "name": "",
          "type": "uint256"
        }
      ],
      "stateMutability": "view",
      "type": "function",
      "constant": true
    }
  ],
  "bytecode": "0x608060405234801561001057600080fd5b506109cb806100206000396000f3fe608060405234801561001057600080fd5b50600436106100415760003560e01c80632e7700f014610046578063add6415d14610064578063cc2d7ead14610082575b600080fd5b61004e61009e565b60405161005b9190610699565b60405180910390f35b61006c6100a3565b6040516100799190610677565b60405180910390f35b61009c6004803603810190610097919061039f565b6100a8565b005b600090565b606090565b60016000808282546100ba919061077b565b9250508190555060016040518060c001604052803373ffffffffffffffffffffffffffffffffffffffff1681526020018673ffffffffffffffffffffffffffffffffffffffff16815260200185815260200184815260200142815260200183815250908060018154018082558091505060019003906000526020600020906006020160009091909190915060008201518160000160006101000a81548173ffffffffffffffffffffffffffffffffffffffff021916908373ffffffffffffffffffffffffffffffffffffffff16021790555060208201518160010160006101000a81548173ffffffffffffffffffffffffffffffffffffffff021916908373ffffffffffffffffffffffffffffffffffffffff1602179055506040820151816002015560608201518160030190805190602001906101f992919061026a565b506080820151816004015560a082015181600501908051906020019061022092919061026a565b5050507f416cfa4330a4565f45c2fd2dd4826a83a37443aba2ce6f79477c7355afac35fa33858585428660405161025c96959493929190610608565b60405180910390a150505050565b82805461027690610897565b90600052602060002090601f01602090048101928261029857600085556102df565b82601f106102b157805160ff19168380011785556102df565b828001600101855582156102df579182015b828111156102de5782518255916020019190600101906102c3565b5b5090506102ec91906102f0565b5090565b5b808211156103095760008160009055506001016102f1565b5090565b600061032061031b846106e5565b6106b4565b90508281526020810184848401111561033857600080fd5b610343848285610855565b509392505050565b60008135905061035a81610967565b92915050565b600082601f83011261037157600080fd5b813561038184826020860161030d565b91505092915050565b6000813590506103998161097e565b92915050565b600080600080608085870312156103b557600080fd5b60006103c38782880161034b565b94505060206103d48782880161038a565b935050604085013567ffffffffffffffff8111156103f157600080fd5b6103fd87828801610360565b925050606085013567ffffffffffffffff81111561041a57600080fd5b61042687828801610360565b91505092959194509250565b600061043e838361055a565b905092915050565b61044f8161081f565b82525050565b61045e816107d1565b82525050565b61046d816107d1565b82525050565b600061047e82610725565b6104888185610748565b93508360208202850161049a85610715565b8060005b858110156104d657848403895281516104b78582610432565b94506104c28361073b565b925060208a0199505060018101905061049e565b50829750879550505050505092915050565b60006104f382610730565b6104fd8185610759565b935061050d818560208601610864565b61051681610956565b840191505092915050565b600061052c82610730565b610536818561076a565b9350610546818560208601610864565b61054f81610956565b840191505092915050565b600060c0830160008301516105726000860182610455565b5060208301516105856020860182610455565b50604083015161059860408601826105ea565b50606083015184820360608601526105b082826104e8565b91505060808301516105c560808601826105ea565b5060a083015184820360a08601526105dd82826104e8565b9150508091505092915050565b6105f381610815565b82525050565b61060281610815565b82525050565b600060c08201905061061d6000830189610464565b61062a6020830188610446565b61063760408301876105f9565b81810360608301526106498186610521565b905061065860808301856105f9565b81810360a083015261066a8184610521565b9050979650505050505050565b600060208201905081810360008301526106918184610473565b905092915050565b60006020820190506106ae60008301846105f9565b92915050565b6000604051905081810181811067ffffffffffffffff821117156106db576106da610927565b5b8060405250919050565b600067ffffffffffffffff821115610700576106ff610927565b5b601f19601f8301169050602081019050919050565b6000819050602082019050919050565b600081519050919050565b600081519050919050565b6000602082019050919050565b600082825260208201905092915050565b600082825260208201905092915050565b600082825260208201905092915050565b600061078682610815565b915061079183610815565b9250827fffffffffffffffffffffffffffffffffffffffffffffffffffffffffffffffff038211156107c6576107c56108c9565b5b828201905092915050565b60006107dc826107f5565b9050919050565b60006107ee826107f5565b9050919050565b600073ffffffffffffffffffffffffffffffffffffffff82169050919050565b6000819050919050565b600061082a82610831565b9050919050565b600061083c82610843565b9050919050565b600061084e826107f5565b9050919050565b82818337600083830152505050565b60005b83811015610882578082015181840152602081019050610867565b83811115610891576000848401525b50505050565b600060028204905060018216806108af57607f821691505b602082108114156108c3576108c26108f8565b5b50919050565b7f4e487b7100000000000000000000000000000000000000000000000000000000600052601160045260246000fd5b7f4e487b7100000000000000000000000000000000000000000000000000000000600052602260045260246000fd5b7f4e487b7100000000000000000000000000000000000000000000000000000000600052604160045260246000fd5b6000601f19601f8301169050919050565b610970816107e3565b811461097b57600080fd5b50565b61098781610815565b811461099257600080fd5b5056fea26469706673582212209fd545eb4366fbad17a2908837ce42e0f481bde3b79a04bdaa7f38b759b973ea64736f6c63430008000033",
  "immutableReferences": {},
  "source": "// SPDX-License-Identifier: UNLICENSED\r\npragma solidity ^0.8.0;\r\n\r\ncontract Transaction{\r\n    uint256 transactionCounter;\r\n\r\n    event Transfer(address from,address receiver,uint amount,string message,uint timestamp,string keyword);\r\n\r\n    struct TransactionStruct {\r\n        address from;\r\n        address receiver;\r\n        uint amount;\r\n        string message;\r\n        uint timestamp;\r\n        string keyword;\r\n    }\r\n\r\n    TransactionStruct[] transactions;\r\n\r\n    function addToBlockchain(address payable receiver,uint amount,string memory message,string memory keyword) public {\r\n        transactionCounter+=1;\r\n        transactions.push(TransactionStruct(msg.sender,receiver,amount,message,block.timestamp,keyword));\r\n\r\n        emit Transfer(msg.sender,receiver,amount,message,block.timestamp,keyword);\r\n    }\r\n\r\n    function getAllTransaction() public view returns (TransactionStruct[] memory){\r\n\r\n    }\r\n\r\n    function getTransactionCount() public view returns (uint256){\r\n\r\n    }\r\n\r\n}",
  "sourcePath": "D:\\study\\sem-7\\4IT31\\Lab\\admin-project\\smart_contract\\contracts\\Transaction.sol",
  "compiler": {
    "name": "solc",
    "version": "0.8.0+commit.c7dfd78e.Emscripten.clang"
  },
  "schemaVersion": "3.4.9",
  "updatedAt": "2022-09-01T06:25:16.829Z",
  "networkType": "ethereum",
  "devdoc": {
    "kind": "dev",
    "methods": {},
    "version": 1
  },
  "userdoc": {
    "kind": "user",
    "methods": {},
    "version": 1
  }
}